{
  "_format": "hh-sol-artifact-1",
  "contractName": "Escrow",
  "sourceName": "contracts/Escrow.sol",
  "abi": [
    {
      "inputs": [
        {
          "internalType": "uint256",
          "name": "_percentCharges",
          "type": "uint256"
        }
      ],
      "stateMutability": "nonpayable",
      "type": "constructor"
    },
    {
      "anonymous": false,
      "inputs": [
        {
          "indexed": false,
          "internalType": "uint256",
          "name": "itemId",
          "type": "uint256"
        },
        {
          "indexed": false,
          "internalType": "string",
          "name": "actionType",
          "type": "string"
        },
        {
          "indexed": false,
          "internalType": "enum Escrow.Status",
          "name": "status",
          "type": "uint8"
        },
        {
          "indexed": true,
          "internalType": "address",
          "name": "executor",
          "type": "address"
        }
      ],
      "name": "Action",
      "type": "event"
    },
    {
      "inputs": [],
      "name": "AllAggrements",
      "outputs": [
        {
          "components": [
            {
              "internalType": "uint256",
              "name": "id",
              "type": "uint256"
            },
            {
              "internalType": "string",
              "name": "details",
              "type": "string"
            },
            {
              "internalType": "uint256",
              "name": "amount",
              "type": "uint256"
            },
            {
              "internalType": "uint256",
              "name": "timeStamp",
              "type": "uint256"
            },
            {
              "internalType": "address",
              "name": "owner",
              "type": "address"
            },
            {
              "internalType": "address",
              "name": "signee",
              "type": "address"
            },
            {
              "internalType": "uint256",
              "name": "timeDelivered",
              "type": "uint256"
            },
            {
              "internalType": "uint256",
              "name": "timeAccepted",
              "type": "uint256"
            },
            {
              "internalType": "enum Escrow.Status",
              "name": "status",
              "type": "uint8"
            },
            {
              "internalType": "bool",
              "name": "isConfirmed",
              "type": "bool"
            },
            {
              "internalType": "enum Escrow.Available",
              "name": "isAvailable",
              "type": "uint8"
            }
          ],
          "internalType": "struct Escrow.AggrementStruct[]",
          "name": "_aggrements",
          "type": "tuple[]"
        }
      ],
      "stateMutability": "view",
      "type": "function"
    },
    {
      "inputs": [
        {
          "internalType": "uint256",
          "name": "",
          "type": "uint256"
        },
        {
          "internalType": "uint256",
          "name": "",
          "type": "uint256"
        }
      ],
      "name": "aggreementRequests",
      "outputs": [
        {
          "internalType": "uint256",
          "name": "aggrementId",
          "type": "uint256"
        },
        {
          "internalType": "address",
          "name": "bidder",
          "type": "address"
        },
        {
          "internalType": "uint256",
          "name": "timeStamp",
          "type": "uint256"
        },
        {
          "internalType": "bool",
          "name": "isAccepted",
          "type": "bool"
        }
      ],
      "stateMutability": "view",
      "type": "function"
    },
    {
      "inputs": [],
      "name": "companyAcc",
      "outputs": [
        {
          "internalType": "address",
          "name": "",
          "type": "address"
        }
      ],
      "stateMutability": "view",
      "type": "function"
    },
    {
      "inputs": [],
      "name": "companyBal",
      "outputs": [
        {
          "internalType": "uint256",
          "name": "",
          "type": "uint256"
        }
      ],
      "stateMutability": "view",
      "type": "function"
    },
    {
      "inputs": [],
      "name": "companyProfit",
      "outputs": [
        {
          "internalType": "uint256",
          "name": "",
          "type": "uint256"
        }
      ],
      "stateMutability": "view",
      "type": "function"
    },
    {
      "inputs": [
        {
          "internalType": "string",
          "name": "_details",
          "type": "string"
        },
        {
          "internalType": "uint256",
          "name": "_amount",
          "type": "uint256"
        }
      ],
      "name": "createAggrement",
      "outputs": [
        {
          "internalType": "bool",
          "name": "",
          "type": "bool"
        }
      ],
      "stateMutability": "nonpayable",
      "type": "function"
    },
    {
      "inputs": [
        {
          "internalType": "uint256",
          "name": "",
          "type": "uint256"
        }
      ],
      "name": "isAvailable",
      "outputs": [
        {
          "internalType": "enum Escrow.Available",
          "name": "",
          "type": "uint8"
        }
      ],
      "stateMutability": "view",
      "type": "function"
    },
    {
      "inputs": [],
      "name": "myAggrements",
      "outputs": [
        {
          "components": [
            {
              "internalType": "uint256",
              "name": "id",
              "type": "uint256"
            },
            {
              "internalType": "string",
              "name": "details",
              "type": "string"
            },
            {
              "internalType": "uint256",
              "name": "amount",
              "type": "uint256"
            },
            {
              "internalType": "uint256",
              "name": "timeStamp",
              "type": "uint256"
            },
            {
              "internalType": "address",
              "name": "owner",
              "type": "address"
            },
            {
              "internalType": "address",
              "name": "signee",
              "type": "address"
            },
            {
              "internalType": "uint256",
              "name": "timeDelivered",
              "type": "uint256"
            },
            {
              "internalType": "uint256",
              "name": "timeAccepted",
              "type": "uint256"
            },
            {
              "internalType": "enum Escrow.Status",
              "name": "status",
              "type": "uint8"
            },
            {
              "internalType": "bool",
              "name": "isConfirmed",
              "type": "bool"
            },
            {
              "internalType": "enum Escrow.Available",
              "name": "isAvailable",
              "type": "uint8"
            }
          ],
          "internalType": "struct Escrow.AggrementStruct[]",
          "name": "",
          "type": "tuple[]"
        }
      ],
      "stateMutability": "view",
      "type": "function"
    },
    {
      "inputs": [],
      "name": "paymentFees",
      "outputs": [
        {
          "internalType": "uint256",
          "name": "",
          "type": "uint256"
        }
      ],
      "stateMutability": "view",
      "type": "function"
    },
    {
      "inputs": [
        {
          "internalType": "uint256",
          "name": "id",
          "type": "uint256"
        }
      ],
      "name": "refund",
      "outputs": [
        {
          "internalType": "bool",
          "name": "",
          "type": "bool"
        }
      ],
      "stateMutability": "nonpayable",
      "type": "function"
    },
    {
      "inputs": [
        {
          "internalType": "address",
          "name": "",
          "type": "address"
        }
      ],
      "name": "requestCount",
      "outputs": [
        {
          "internalType": "uint256",
          "name": "",
          "type": "uint256"
        }
      ],
      "stateMutability": "view",
      "type": "function"
    },
    {
      "inputs": [
        {
          "internalType": "uint256",
          "name": "id",
          "type": "uint256"
        }
      ],
      "name": "singleAggrement",
      "outputs": [
        {
          "components": [
            {
              "internalType": "uint256",
              "name": "id",
              "type": "uint256"
            },
            {
              "internalType": "string",
              "name": "details",
              "type": "string"
            },
            {
              "internalType": "uint256",
              "name": "amount",
              "type": "uint256"
            },
            {
              "internalType": "uint256",
              "name": "timeStamp",
              "type": "uint256"
            },
            {
              "internalType": "address",
              "name": "owner",
              "type": "address"
            },
            {
              "internalType": "address",
              "name": "signee",
              "type": "address"
            },
            {
              "internalType": "uint256",
              "name": "timeDelivered",
              "type": "uint256"
            },
            {
              "internalType": "uint256",
              "name": "timeAccepted",
              "type": "uint256"
            },
            {
              "internalType": "enum Escrow.Status",
              "name": "status",
              "type": "uint8"
            },
            {
              "internalType": "bool",
              "name": "isConfirmed",
              "type": "bool"
            },
            {
              "internalType": "enum Escrow.Available",
              "name": "isAvailable",
              "type": "uint8"
            }
          ],
          "internalType": "struct Escrow.AggrementStruct",
          "name": "",
          "type": "tuple"
        }
      ],
      "stateMutability": "view",
      "type": "function"
    },
    {
      "inputs": [],
      "name": "totalAgg",
      "outputs": [
        {
          "internalType": "uint256",
          "name": "",
          "type": "uint256"
        }
      ],
      "stateMutability": "view",
      "type": "function"
    },
    {
      "inputs": [],
      "name": "totalConfirmedAgg",
      "outputs": [
        {
          "internalType": "uint256",
          "name": "",
          "type": "uint256"
        }
      ],
      "stateMutability": "view",
      "type": "function"
    },
    {
      "inputs": [],
      "name": "totalDisputed",
      "outputs": [
        {
          "internalType": "uint256",
          "name": "",
          "type": "uint256"
        }
      ],
      "stateMutability": "view",
      "type": "function"
    },
    {
      "inputs": [
        {
          "internalType": "address",
          "name": "",
          "type": "address"
        },
        {
          "internalType": "uint256",
          "name": "",
          "type": "uint256"
        }
      ],
      "name": "userRequests",
      "outputs": [
        {
          "internalType": "uint256",
          "name": "aggrementId",
          "type": "uint256"
        },
        {
          "internalType": "address",
          "name": "bidder",
          "type": "address"
        },
        {
          "internalType": "uint256",
          "name": "timeStamp",
          "type": "uint256"
        },
        {
          "internalType": "bool",
          "name": "isAccepted",
          "type": "bool"
        }
      ],
      "stateMutability": "view",
      "type": "function"
    },
    {
      "inputs": [
        {
          "internalType": "address",
          "name": "to",
          "type": "address"
        },
        {
          "internalType": "uint256",
          "name": "amt",
          "type": "uint256"
        }
      ],
      "name": "withdraw",
      "outputs": [
        {
          "internalType": "bool",
          "name": "",
          "type": "bool"
        }
      ],
      "stateMutability": "nonpayable",
      "type": "function"
    }
  ],
  "bytecode": "0x60806040526000600555600060065560006007553480156200002057600080fd5b5060405162002afc38038062002afc8339818101604052810190620000469190620000ed565b600160008190555033600160006101000a81548173ffffffffffffffffffffffffffffffffffffffff021916908373ffffffffffffffffffffffffffffffffffffffff1602179055506000600281905550600060038190555080600481905550506200011f565b600080fd5b6000819050919050565b620000c781620000b2565b8114620000d357600080fd5b50565b600081519050620000e781620000bc565b92915050565b600060208284031215620001065762000105620000ad565b5b60006200011684828501620000d6565b91505092915050565b6129cd806200012f6000396000f3fe608060405234801561001057600080fd5b506004361061010b5760003560e01c80639dd57885116100a2578063cd3dbe4611610071578063cd3dbe46146102d8578063d16a5189146102f6578063d36acc3914610326578063debb9d2814610344578063f3fef3a3146103745761010b565b80639dd578851461024e578063aab270991461026c578063b5bba6091461029c578063c9958c4d146102ba5761010b565b80633a178d99116100de5780633a178d99146101c457806343320d2d146101f45780635a2168801461021257806364352ec7146102305761010b565b8063014e06da146101105780631f0d9d1b14610143578063263cb6b614610161578063278ecde114610194575b600080fd5b61012a60048036038101906101259190611899565b6103a4565b60405161013a9493929190611944565b60405180910390f35b61014b61041e565b6040516101589190611989565b60405180910390f35b61017b600480360381019061017691906119d0565b610424565b60405161018b9493929190611944565b60405180910390f35b6101ae60048036038101906101a99190611a10565b61049e565b6040516101bb9190611a3d565b60405180910390f35b6101de60048036038101906101d99190611a10565b6106cb565b6040516101eb9190611acf565b60405180910390f35b6101fc6106eb565b6040516102099190611daf565b60405180910390f35b61021a610989565b6040516102279190611989565b60405180910390f35b61023861098f565b6040516102459190611989565b60405180910390f35b610256610995565b6040516102639190611daf565b60405180910390f35b61028660048036038101906102819190611e36565b610c51565b6040516102939190611a3d565b60405180910390f35b6102a4611314565b6040516102b19190611989565b60405180910390f35b6102c261131a565b6040516102cf9190611989565b60405180910390f35b6102e0611320565b6040516102ed9190611989565b60405180910390f35b610310600480360381019061030b9190611a10565b611326565b60405161031d9190611f85565b60405180910390f35b61032e611555565b60405161033b9190611fa7565b60405180910390f35b61035e60048036038101906103599190611fc2565b61157b565b60405161036b9190611989565b60405180910390f35b61038e600480360381019061038991906119d0565b611593565b60405161039b9190611a3d565b60405180910390f35b600b60205281600052604060002081815481106103c057600080fd5b9060005260206000209060040201600091509150508060000154908060010160009054906101000a900473ffffffffffffffffffffffffffffffffffffffff16908060020154908060030160009054906101000a900460ff16905084565b60045481565b600a602052816000526040600020818154811061044057600080fd5b9060005260206000209060040201600091509150508060000154908060010160009054906101000a900473ffffffffffffffffffffffffffffffffffffffff16908060020154908060030160009054906101000a900460ff16905084565b6000600160009054906101000a900473ffffffffffffffffffffffffffffffffffffffff1673ffffffffffffffffffffffffffffffffffffffff163373ffffffffffffffffffffffffffffffffffffffff1614610530576040517f08c379a00000000000000000000000000000000000000000000000000000000081526004016105279061204c565b60405180910390fd5b6008600083815260200190815260200160002060080160019054906101000a900460ff1615610594576040517f08c379a000000000000000000000000000000000000000000000000000000000815260040161058b906120b8565b60405180910390fd5b6105ea6008600084815260200190815260200160002060040160009054906101000a900473ffffffffffffffffffffffffffffffffffffffff1660086000858152602001908152602001600020600201546116f5565b506008600083815260200190815260200160002060020154600260008282546106139190612107565b9250508190555060056008600084815260200190815260200160002060080160006101000a81548160ff0219169083600681111561065457610653611a58565b5b02179055506007600081548092919061066c9061213b565b91905055503373ffffffffffffffffffffffffffffffffffffffff167f23ad0062ad47da0f27f5c07751751e4b60afc16bf6fe03a24266a01ec48979318360056040516106ba9291906121de565b60405180910390a260019050919050565b600c6020528060005260406000206000915054906101000a900460ff1681565b6060600960003373ffffffffffffffffffffffffffffffffffffffff1673ffffffffffffffffffffffffffffffffffffffff168152602001908152602001600020805480602002602001604051908101604052809291908181526020016000905b828210156109805783829060005260206000209060090201604051806101600160405290816000820154815260200160018201805461078a90612249565b80601f01602080910402602001604051908101604052809291908181526020018280546107b690612249565b80156108035780601f106107d857610100808354040283529160200191610803565b820191906000526020600020905b8154815290600101906020018083116107e657829003601f168201915b5050505050815260200160028201548152602001600382015481526020016004820160009054906101000a900473ffffffffffffffffffffffffffffffffffffffff1673ffffffffffffffffffffffffffffffffffffffff1673ffffffffffffffffffffffffffffffffffffffff1681526020016005820160009054906101000a900473ffffffffffffffffffffffffffffffffffffffff1673ffffffffffffffffffffffffffffffffffffffff1673ffffffffffffffffffffffffffffffffffffffff16815260200160068201548152602001600782015481526020016008820160009054906101000a900460ff16600681111561090557610904611a58565b5b600681111561091757610916611a58565b5b81526020016008820160019054906101000a900460ff161515151581526020016008820160029054906101000a900460ff16600181111561095b5761095a611a58565b5b600181111561096d5761096c611a58565b5b815250508152602001906001019061074c565b50505050905090565b60055481565b60065481565b606060055467ffffffffffffffff8111156109b3576109b261227a565b5b6040519080825280602002602001820160405280156109ec57816020015b6109d96117ad565b8152602001906001900390816109d15790505b50905060005b600554811015610c4d57600860008281526020019081526020016000206040518061016001604052908160008201548152602001600182018054610a3590612249565b80601f0160208091040260200160405190810160405280929190818152602001828054610a6190612249565b8015610aae5780601f10610a8357610100808354040283529160200191610aae565b820191906000526020600020905b815481529060010190602001808311610a9157829003601f168201915b5050505050815260200160028201548152602001600382015481526020016004820160009054906101000a900473ffffffffffffffffffffffffffffffffffffffff1673ffffffffffffffffffffffffffffffffffffffff1673ffffffffffffffffffffffffffffffffffffffff1681526020016005820160009054906101000a900473ffffffffffffffffffffffffffffffffffffffff1673ffffffffffffffffffffffffffffffffffffffff1673ffffffffffffffffffffffffffffffffffffffff16815260200160068201548152602001600782015481526020016008820160009054906101000a900460ff166006811115610bb057610baf611a58565b5b6006811115610bc257610bc1611a58565b5b81526020016008820160019054906101000a900460ff161515151581526020016008820160029054906101000a900460ff166001811115610c0657610c05611a58565b5b6001811115610c1857610c17611a58565b5b81525050828281518110610c2f57610c2e6122a9565b5b60200260200101819052508080610c459061213b565b9150506109f2565b5090565b6000808484905011610c98576040517f08c379a0000000000000000000000000000000000000000000000000000000008152600401610c8f90612324565b60405180910390fd5b60008211610cdb576040517f08c379a0000000000000000000000000000000000000000000000000000000008152600401610cd290612390565b60405180910390fd5b600060056000815480929190610cf09061213b565b91905055905060006008600083815260200190815260200160002090508181600001819055508585826001019182610d29929190612567565b50838160020181905550428160030181905550338160040160006101000a81548173ffffffffffffffffffffffffffffffffffffffff021916908373ffffffffffffffffffffffffffffffffffffffff16021790555060008160050160006101000a81548173ffffffffffffffffffffffffffffffffffffffff021916908373ffffffffffffffffffffffffffffffffffffffff16021790555060008160080160016101000a81548160ff02191690831515021790555060018160080160026101000a81548160ff02191690836001811115610e0857610e07611a58565b5b021790555060008160080160006101000a81548160ff02191690836006811115610e3557610e34611a58565b5b02179055506001600c600084815260200190815260200160002060006101000a81548160ff02191690836001811115610e7157610e70611a58565b5b0217905550600960003373ffffffffffffffffffffffffffffffffffffffff1673ffffffffffffffffffffffffffffffffffffffff1681526020019081526020016000208190806001815401808255809150506001900390600052602060002090600902016000909190919091506000820154816000015560018201816001019081610efd919061264d565b5060028201548160020155600382015481600301556004820160009054906101000a900473ffffffffffffffffffffffffffffffffffffffff168160040160006101000a81548173ffffffffffffffffffffffffffffffffffffffff021916908373ffffffffffffffffffffffffffffffffffffffff1602179055506005820160009054906101000a900473ffffffffffffffffffffffffffffffffffffffff168160050160006101000a81548173ffffffffffffffffffffffffffffffffffffffff021916908373ffffffffffffffffffffffffffffffffffffffff16021790555060068201548160060155600782015481600701556008820160009054906101000a900460ff168160080160006101000a81548160ff0219169083600681111561102c5761102b611a58565b5b02179055506008820160019054906101000a900460ff168160080160016101000a81548160ff0219169083151502179055506008820160029054906101000a900460ff168160080160026101000a81548160ff0219169083600181111561109657611095611a58565b5b02179055505050806008600084815260200190815260200160002060008201548160000155600182018160010190816110cf919061264d565b5060028201548160020155600382015481600301556004820160009054906101000a900473ffffffffffffffffffffffffffffffffffffffff168160040160006101000a81548173ffffffffffffffffffffffffffffffffffffffff021916908373ffffffffffffffffffffffffffffffffffffffff1602179055506005820160009054906101000a900473ffffffffffffffffffffffffffffffffffffffff168160050160006101000a81548173ffffffffffffffffffffffffffffffffffffffff021916908373ffffffffffffffffffffffffffffffffffffffff16021790555060068201548160060155600782015481600701556008820160009054906101000a900460ff168160080160006101000a81548160ff021916908360068111156111fe576111fd611a58565b5b02179055506008820160019054906101000a900460ff168160080160016101000a81548160ff0219169083151502179055506008820160029054906101000a900460ff168160080160026101000a81548160ff0219169083600181111561126857611267611a58565b5b021790555090505061129c600160009054906101000a900473ffffffffffffffffffffffffffffffffffffffff16856116f5565b5083600260008282546112af9190612735565b925050819055503373ffffffffffffffffffffffffffffffffffffffff167f23ad0062ad47da0f27f5c07751751e4b60afc16bf6fe03a24266a01ec48979318360006040516112ff9291906127b5565b60405180910390a26001925050509392505050565b60035481565b60075481565b60025481565b61132e6117ad565b60086000838152602001908152602001600020604051806101600160405290816000820154815260200160018201805461136790612249565b80601f016020809104026020016040519081016040528092919081815260200182805461139390612249565b80156113e05780601f106113b5576101008083540402835291602001916113e0565b820191906000526020600020905b8154815290600101906020018083116113c357829003601f168201915b5050505050815260200160028201548152602001600382015481526020016004820160009054906101000a900473ffffffffffffffffffffffffffffffffffffffff1673ffffffffffffffffffffffffffffffffffffffff1673ffffffffffffffffffffffffffffffffffffffff1681526020016005820160009054906101000a900473ffffffffffffffffffffffffffffffffffffffff1673ffffffffffffffffffffffffffffffffffffffff1673ffffffffffffffffffffffffffffffffffffffff16815260200160068201548152602001600782015481526020016008820160009054906101000a900460ff1660068111156114e2576114e1611a58565b5b60068111156114f4576114f3611a58565b5b81526020016008820160019054906101000a900460ff161515151581526020016008820160029054906101000a900460ff16600181111561153857611537611a58565b5b600181111561154a57611549611a58565b5b815250509050919050565b600160009054906101000a900473ffffffffffffffffffffffffffffffffffffffff1681565b600d6020528060005260406000206000915090505481565b6000600160009054906101000a900473ffffffffffffffffffffffffffffffffffffffff1673ffffffffffffffffffffffffffffffffffffffff163373ffffffffffffffffffffffffffffffffffffffff1614611625576040517f08c379a000000000000000000000000000000000000000000000000000000000815260040161161c9061204c565b60405180910390fd5b60008211801561163757506003548211155b611676576040517f08c379a000000000000000000000000000000000000000000000000000000000815260040161166d9061283d565b60405180910390fd5b61168083836116f5565b5081600360008282546116939190612107565b925050819055503373ffffffffffffffffffffffffffffffffffffffff167f23ad0062ad47da0f27f5c07751751e4b60afc16bf6fe03a24266a01ec48979314260066040516116e39291906128a9565b60405180910390a26001905092915050565b6000808373ffffffffffffffffffffffffffffffffffffffff168360405161171c90612916565b60006040518083038185875af1925050503d8060008114611759576040519150601f19603f3d011682016040523d82523d6000602084013e61175e565b606091505b50509050806117a2576040517f08c379a000000000000000000000000000000000000000000000000000000000815260040161179990612977565b60405180910390fd5b600191505092915050565b60405180610160016040528060008152602001606081526020016000815260200160008152602001600073ffffffffffffffffffffffffffffffffffffffff168152602001600073ffffffffffffffffffffffffffffffffffffffff16815260200160008152602001600081526020016000600681111561183157611830611a58565b5b81526020016000151581526020016000600181111561185357611852611a58565b5b81525090565b600080fd5b600080fd5b6000819050919050565b61187681611863565b811461188157600080fd5b50565b6000813590506118938161186d565b92915050565b600080604083850312156118b0576118af611859565b5b60006118be85828601611884565b92505060206118cf85828601611884565b9150509250929050565b6118e281611863565b82525050565b600073ffffffffffffffffffffffffffffffffffffffff82169050919050565b6000611913826118e8565b9050919050565b61192381611908565b82525050565b60008115159050919050565b61193e81611929565b82525050565b600060808201905061195960008301876118d9565b611966602083018661191a565b61197360408301856118d9565b6119806060830184611935565b95945050505050565b600060208201905061199e60008301846118d9565b92915050565b6119ad81611908565b81146119b857600080fd5b50565b6000813590506119ca816119a4565b92915050565b600080604083850312156119e7576119e6611859565b5b60006119f5858286016119bb565b9250506020611a0685828601611884565b9150509250929050565b600060208284031215611a2657611a25611859565b5b6000611a3484828501611884565b91505092915050565b6000602082019050611a526000830184611935565b92915050565b7f4e487b7100000000000000000000000000000000000000000000000000000000600052602160045260246000fd5b60028110611a9857611a97611a58565b5b50565b6000819050611aa982611a87565b919050565b6000611ab982611a9b565b9050919050565b611ac981611aae565b82525050565b6000602082019050611ae46000830184611ac0565b92915050565b600081519050919050565b600082825260208201905092915050565b6000819050602082019050919050565b611b1f81611863565b82525050565b600081519050919050565b600082825260208201905092915050565b60005b83811015611b5f578082015181840152602081019050611b44565b60008484015250505050565b6000601f19601f8301169050919050565b6000611b8782611b25565b611b918185611b30565b9350611ba1818560208601611b41565b611baa81611b6b565b840191505092915050565b611bbe81611908565b82525050565b60078110611bd557611bd4611a58565b5b50565b6000819050611be682611bc4565b919050565b6000611bf682611bd8565b9050919050565b611c0681611beb565b82525050565b611c1581611929565b82525050565b611c2481611aae565b82525050565b600061016083016000830151611c436000860182611b16565b5060208301518482036020860152611c5b8282611b7c565b9150506040830151611c706040860182611b16565b506060830151611c836060860182611b16565b506080830151611c966080860182611bb5565b5060a0830151611ca960a0860182611bb5565b5060c0830151611cbc60c0860182611b16565b5060e0830151611ccf60e0860182611b16565b50610100830151611ce4610100860182611bfd565b50610120830151611cf9610120860182611c0c565b50610140830151611d0e610140860182611c1b565b508091505092915050565b6000611d258383611c2a565b905092915050565b6000602082019050919050565b6000611d4582611aea565b611d4f8185611af5565b935083602082028501611d6185611b06565b8060005b85811015611d9d5784840389528151611d7e8582611d19565b9450611d8983611d2d565b925060208a01995050600181019050611d65565b50829750879550505050505092915050565b60006020820190508181036000830152611dc98184611d3a565b905092915050565b600080fd5b600080fd5b600080fd5b60008083601f840112611df657611df5611dd1565b5b8235905067ffffffffffffffff811115611e1357611e12611dd6565b5b602083019150836001820283011115611e2f57611e2e611ddb565b5b9250929050565b600080600060408486031215611e4f57611e4e611859565b5b600084013567ffffffffffffffff811115611e6d57611e6c61185e565b5b611e7986828701611de0565b93509350506020611e8c86828701611884565b9150509250925092565b600061016083016000830151611eaf6000860182611b16565b5060208301518482036020860152611ec78282611b7c565b9150506040830151611edc6040860182611b16565b506060830151611eef6060860182611b16565b506080830151611f026080860182611bb5565b5060a0830151611f1560a0860182611bb5565b5060c0830151611f2860c0860182611b16565b5060e0830151611f3b60e0860182611b16565b50610100830151611f50610100860182611bfd565b50610120830151611f65610120860182611c0c565b50610140830151611f7a610140860182611c1b565b508091505092915050565b60006020820190508181036000830152611f9f8184611e96565b905092915050565b6000602082019050611fbc600083018461191a565b92915050565b600060208284031215611fd857611fd7611859565b5b6000611fe6848285016119bb565b91505092915050565b600082825260208201905092915050565b7f2055736572206e6f7420616c6c6f776564200000000000000000000000000000600082015250565b6000612036601283611fef565b915061204182612000565b602082019050919050565b6000602082019050818103600083015261206581612029565b9050919050565b7f204167677265656d656e7420616c72656164792066756c6c66696c6c65640000600082015250565b60006120a2601e83611fef565b91506120ad8261206c565b602082019050919050565b600060208201905081810360008301526120d181612095565b9050919050565b7f4e487b7100000000000000000000000000000000000000000000000000000000600052601160045260246000fd5b600061211282611863565b915061211d83611863565b9250828203905081811115612135576121346120d8565b5b92915050565b600061214682611863565b91507fffffffffffffffffffffffffffffffffffffffffffffffffffffffffffffffff8203612178576121776120d8565b5b600182019050919050565b7f524546554e444544000000000000000000000000000000000000000000000000600082015250565b60006121b9600883611fef565b91506121c482612183565b602082019050919050565b6121d881611beb565b82525050565b60006060820190506121f360008301856118d9565b8181036020830152612204816121ac565b905061221360408301846121cf565b9392505050565b7f4e487b7100000000000000000000000000000000000000000000000000000000600052602260045260246000fd5b6000600282049050600182168061226157607f821691505b6020821081036122745761227361221a565b5b50919050565b7f4e487b7100000000000000000000000000000000000000000000000000000000600052604160045260246000fd5b7f4e487b7100000000000000000000000000000000000000000000000000000000600052603260045260246000fd5b7f44657461696c732063616e6e6f7420626520656d707479000000000000000000600082015250565b600061230e601783611fef565b9150612319826122d8565b602082019050919050565b6000602082019050818103600083015261233d81612301565b9050919050565b7f416d6f756e74206d757374206e6f74206265207a65726f000000000000000000600082015250565b600061237a601783611fef565b915061238582612344565b602082019050919050565b600060208201905081810360008301526123a98161236d565b9050919050565b600082905092915050565b60008190508160005260206000209050919050565b60006020601f8301049050919050565b600082821b905092915050565b60006008830261241d7fffffffffffffffffffffffffffffffffffffffffffffffffffffffffffffffff826123e0565b61242786836123e0565b95508019841693508086168417925050509392505050565b6000819050919050565b600061246461245f61245a84611863565b61243f565b611863565b9050919050565b6000819050919050565b61247e83612449565b61249261248a8261246b565b8484546123ed565b825550505050565b600090565b6124a761249a565b6124b2818484612475565b505050565b5b818110156124d6576124cb60008261249f565b6001810190506124b8565b5050565b601f82111561251b576124ec816123bb565b6124f5846123d0565b81016020851015612504578190505b612518612510856123d0565b8301826124b7565b50505b505050565b600082821c905092915050565b600061253e60001984600802612520565b1980831691505092915050565b6000612557838361252d565b9150826002028217905092915050565b61257183836123b0565b67ffffffffffffffff81111561258a5761258961227a565b5b6125948254612249565b61259f8282856124da565b6000601f8311600181146125ce57600084156125bc578287013590505b6125c6858261254b565b86555061262e565b601f1984166125dc866123bb565b60005b82811015612604578489013582556001820191506020850194506020810190506125df565b86831015612621578489013561261d601f89168261252d565b8355505b6001600288020188555050505b50505050505050565b60008154905061264681612249565b9050919050565b81810361265b575050612733565b61266482612637565b67ffffffffffffffff81111561267d5761267c61227a565b5b6126878254612249565b6126928282856124da565b6000601f8311600181146126c157600084156126af578287015490505b6126b9858261254b565b86555061272c565b601f1984166126cf876123bb565b96506126da866123bb565b60005b82811015612702578489015482556001820191506001850194506020810190506126dd565b8683101561271f578489015461271b601f89168261252d565b8355505b6001600288020188555050505b5050505050505b565b600061274082611863565b915061274b83611863565b9250828201905080821115612763576127626120d8565b5b92915050565b7f4147475245454d454e5420435245415445440000000000000000000000000000600082015250565b600061279f601283611fef565b91506127aa82612769565b602082019050919050565b60006060820190506127ca60008301856118d9565b81810360208301526127db81612792565b90506127ea60408301846121cf565b9392505050565b7f207769746864726177616c20616d6f756e7420746f6f206c6f77000000000000600082015250565b6000612827601a83611fef565b9150612832826127f1565b602082019050919050565b600060208201905081810360008301526128568161281a565b9050919050565b7f5749544844524157454400000000000000000000000000000000000000000000600082015250565b6000612893600a83611fef565b915061289e8261285d565b602082019050919050565b60006060820190506128be60008301856118d9565b81810360208301526128cf81612886565b90506128de60408301846121cf565b9392505050565b600081905092915050565b50565b60006129006000836128e5565b915061290b826128f0565b600082019050919050565b6000612921826128f3565b9150819050919050565b7f205061796d656e7420556e7375636365737366756c6c20000000000000000000600082015250565b6000612961601783611fef565b915061296c8261292b565b602082019050919050565b6000602082019050818103600083015261299081612954565b905091905056fea26469706673582212203022829d45c41ee7ccdc991f307e6b03c800ae82c8be22d6d5a0f93be58c9eb864736f6c63430008110033",
  "linkReferences": {},
  "deployedLinkReferences": {}
}